:100A56002020434F554E5445522020202020202050
:100A660000434F554E5420202020202020202020B7
:020A760020005E
:100A99007F38120AD0120AE87F06120AD0120AE831
:0D0AA9007F0C120AD0120AE87F01020AD069
:100AD0008F80D2A5C2A6C2A77F7D7E00120AECC27B
:080AE000A57F7D7E00020AECF7
:030A78002430FD2A
:100A7B008D11120AD0851180D2A7D2A5C2A67F7D77
:0E0A8B007E00120AECC2A57F7D7E00020AECFE
:0A09DF007BFF750E00750F107F807E
:0809E9008F0A8B0B8A0C890DAB
:1009F100E4F510C3E510950FE4950E501CE50A25AA
:100A010010FFAB0BAA0CA90D85108275830012088B
:090A11009EFD120A7B051080DA3B
:010A1A0022B9
:020A1B008F1931
:100A1D00ED75F06484ABF07A007C007D0AAF037E47
:100A2D00001208CB8F827E00AF037C007D0A120876
:100A3D00CB8C1A8D1BAF82EFAF19120A78E5190412
:090A4D00FFE51B2430FD020A7BC9
:02098C008F0AD0
:10098E00ED75F06484750B00F50CED75F06484ABB9
:10099E00F07A007C007D0AAF037E001208CB8E0D2C
:1009AE008F0E7E00AF037C007D0A1208CB8C0F8D5C
:1009BE0010E50CAF0A120A78E50A04FFE50E2430A2
:1009CE00FD120A7BE50A2402FFE5102430FD020A1F
:0109DE007B9D
:060800008F12AB05AA04F3
:100806007C277D10AF03AE021208CBAA04AB057C91
:10081600037DE8AF03AE021208CB8F82AE02AF03B0
:100826007C037DE81208CBAB05AA047C007D64AF8F
:1008360003AE021208CB8E138F14AE02AF037C00F8
:100846007D641208CBAB05AA047C007D0AAF03AE1B
:10085600021208CB8E158F16AE02AF037C007D0AFE
:100866001208CB8C178D18AF82EF2430FDAF121211
:100876000A7BE51204FFE5142430FD120A7BE5121B
:100886002402FFE5162430FD120A7BE5122403FF3D
:08089600E5182430FD020A7B85
:040AE8007F0A7E0003
:0B0AEC00EF1FAC0670011E4C70F622DC
:100AB600AB07AA06AE02AF03EF1F8E8370011E4579
:090AC6008370F5AC051DEC70EB2A
:010ACF002204
:10092000758906E4F58AD28C120A997A0A795612E8
:1009300009DF7FE87EFD120AEC7FE87EFD120AECFB
:100940007F01120AD0AF8AEF75F00A84F508EF75BF
:10095000F00A8485F0097A0A79671209DFAD087F09
:10096000CD12098CE4FFFE0FBF00010EBE01F8BFDF
:10097000F4F5AD097FC912098CE4FEFFC3EF94F4CE
:0C098000EE940150C00FBF00010E80F08B
:03000000020AF7FA
:0C0AF700787FE4F6D8FD75811B02092011
:10089E00BB010CE58229F582E5833AF583E022500F
:1008AE0006E92582F8E622BBFE06E92582F8E22259
:0D08BE00E58229F582E5833AF583E4932273
:1008CB00BC000BBE0029EF8DF084FFADF022E4CC11
:1008DB00F875F008EF2FFFEE33FEEC33FCEE9DECDA
:1008EB00984005FCEE9DFE0FD5F0E9E4CEFD22ED20
:1008FB00F8F5F0EE8420D21CFEADF075F008EF2F6A
:10090B00FFED33FD4007985006D5F0F222C398FD5A
:05091B000FD5F0EA22F7
:00000001FF
