:060000000A128A11ED2F27
:100DC4007E088A007F0882000A128A11E2260A122B
:100DD4008A118000840A04087D0603190034FF0A7E
:100DE4000319FE0AE62EF200831203138715720814
:100DF40088000714FE30FF007F0887051430F100D7
:100E04007930F000F00B042FF10B042F092F0800A8
:100E1400F200F730FF007F0883120313870572087E
:100E240088000714FE30FF007F0887051430F100A6
:100E34007930F000F00B1C2FF10B1C2F212F080030
:100E440081348234833484348534863487348834DA
:100E54008934CE34CD34CC34CB34CA34C934C834D8
:100E6400C734C63441344B344134533448342034C9
:100E74005234203448340A128A1194270A128A11EF
:100E8400F7017708203E8400831300080A128A11B0
:100E94000A270A128A117708323E84008313000855
:100EA4000A128A11F5260A128A11C330F600CD30CF
:100EB400F500F50B5B2FF60B5B2F0130FF007F086D
:100EC400F70709307702031C682F692F432FF701B6
:100ED4007708293E8400831300080A128A110A271E
:100EE4000A128A117708323E8400831300080A121A
:100EF4008A11F5260A128A11C330F600CD30F500A6
:100F0400F50B822FF60B822F0130FF007F08F707C5
:100F140009307702031C8F2F902F6A2F902F0A120B
:100F24008A110028831603138701880132300A12BC
:100F34008A110A270A128A11C330F400CD30F30053
:100F4400F30BA22FF40BA22F32300A128A110A27B4
:100F54000A128A11C330F400CD30F300F30BB02F22
:100F6400F40BB02F32300A128A110A270A128A119E
:100F7400C330F400CD30F300F30BBE2FF40BBE2FBF
:100F840038300A128A110A270A128A11C330F4006F
:100F9400CD30F300F30BCC2FF40BCC2F0C300A1212
:100FA4008A110A270A128A11C330F400CD30F300E3
:100FB400F30BDA2FF40BDA2F01300A128A110A2705
:100FC4000A128A11C330F400CD30F300F30BE82F7A
:100FD400F40BE82F080083133B30FD000730FE00BC
:100FE4002230FF00203084000A128A11E6260A12F9
:0C0FF4008A11F70183010A128A113D2FB7
:02400E003B3F36
:00000001FF
