:100000000A128A11A72E00308A000408840A820787
:100010000034503457344D34203454344534533440
:10002000543449344E3447342E342E342E34003474
:100D3A00C034F934A434B034993492348234F83457
:100D4A008034903483132A30FD000630FE009D3033
:100D5A00FF00203084000A128A11BD260A128A1165
:100D6A0083010A128A119E2F7E088A007F08820058
:100D7A000A128A11B9260A128A118000840A040802
:100D8A007D0603190034FF0A0319FE0ABD2E02303C
:100D9A000A128A1138270A128A1128300A128A116D
:100DAA0038270A128A1106300A128A1138270A12BB
:100DBA008A110C300A128A1138270A128A11013054
:100DCA000A128A1138270A128A110800ED2EED2E0E
:100DDA00FF30F007FF30031CF107FF30031CF20756
:100DEA00FF30031CF307FF307306031D062FFF3085
:100DFA007206031D062FFF307106031D062FFF30F2
:100E0A007006031D092F0A2FED2E0B2F0800F40080
:100E1A00F501F6012B2F750874070A128A11382773
:100E2A000A128A117508720784000A128A110320AD
:100E3A000A128A110A128A116A270A128A110130C1
:100E4A00F5070318F60A0030F6072B2F7608803AC2
:100E5A00803C031D322F750873020318352F362F75
:100E6A00102F372F0800F1008312031308080F39D7
:100E7A00F0007008FD007108F0397D0488008814BC
:100E8A000810F930F0006400F00B482F4C2F640072
:100E9A008312031388107108F00003300310F00D59
:100EAA00FF3E031D532F0310700DF0397D04880097
:100EBA0088140810F930F0006400F00B612F652FD8
:100ECA0064008312031388100800F10083120313CD
:100EDA0008080F39F0007008FD007108F0397D0428
:100EEA00880088140814F930F0006400F00B7A2F97
:100EFA007E2F640083120313881008107108F00013
:100F0A0003300310F00DFF3E031D862F0310700DF2
:100F1A00F0397D04880088140814F930F000640060
:100F2A00F00B942F982F6400831203138810081073
:100F3A000800831603138801F93087000A128A1100
:100F4A00CC260A128A110F30831203139D009700D0
:100F5A009B019501FF308316031392000130F700BD
:100F6A007708F2000E30F8007808F30080300A1291
:100F7A008A110C270A128A11C22FF901FA01FF30CD
:100F8A00FB000030FC00ED2F8312031312157908C1
:100F9A009500121112157B089B0012110030F30004
:100FAA000030F2001330F1008830F0000A128A1182
:100FBA00EB260A128A110130F9070318FA0A0030DF
:100FCA00FA07FF30FB070318FC0AFF30FC07ED2F76
:100FDA007C08803AFF0080307F02031DF62F013023
:100FEA007B020318F92FFA2FC92FC22FC22FC22F43
:060FFA000A128A11002812
:00000001FF
