:020000040000FA
:060000000A128A11FC2F18
:100EC000F001F1010130F0070318F10A0030F107D9
:100ED0007108803AFF00A7307F02031D712F103088
:100EE0007002031C742F752F622F0B1D782F792F22
:100EF000752F0B1108008316031307148801831242
:100F0000031388010730831603138100ED30831229
:100F10000313810007188D2F8E2F8A2F01300A129C
:100F20008A11B3270A128A1103300A128A11B327D1
:100F30000A128A1107300A128A11B3270A128A117B
:100F40000F300A128A11B3270A128A11A92FFF3013
:100F50008800831203130718AE2FAF2FA72F8A2FF5
:100F60000A128A110028F300F401F5017308F20057
:100F7000740ABC2F0310F20DFF3E031DBA2F720836
:100F80008312031388000A128A1160270A128A1139
:100F90000130F4070318F50A0030F5077508803AA8
:100FA000FF0080307F02031DD72F08307402031C1E
:100FB000DA2FDB2FB62F0730F6000030F70073086A
:100FC000F200760AE52F0310F20DFF3E031DE32F1A
:100FD00072088312031388000A128A1160270A120A
:100FE0008A11FF30F6070318F70AFF30F707F71FDB
:100FF000FA2FFB2FDF2F080083010A128A117B2FA3
:02400E007A3FF7
:00000001FF
