:060000000A128A11122809
:10000800FE00030EF0000408F1000A08F200831253
:1000180003137F08F3000A128A1115280A128A119D
:1000280054280B1D1828192826288B1E1C281D2823
:1000380026280130F4070318F50A0030F507313097
:1000480081000B11003075020A3003197402031C79
:100058002E282F28342801308606F401F50134288B
:100068007308FF0072088A0071088400700E83000C
:10007800FE0E7E0E090083120313860183160313F6
:100088000610811281110114811401158B168B172A
:10009800831203138101502850280A128A1112284A
:0C00A800F401F50183010A128A113F28BF
:00000001FF
