:100000000A128A11A02E00308A000408840A82078E
:10001000003452344534413444343A340034573493
:0A0020005234493454343A340034A9
:100D0400313432343334343435343634373438349B
:100D14003934303400347E088A007F0882000A1295
:100D24008A118D260A128A118000840A04087D061D
:100D340003190034FF0A0319FE0A912EFA018313E2
:100D44002B30FD000630FE008230FF00203084008E
:100D54000A128A1191260A128A1183010A128A112F
:100D6400642F02300A128A11FE260A128A112830D0
:100D74000A128A11FE260A128A1106300A128A11F0
:100D8400FE260A128A110C300A128A11FE260A1251
:100D94008A1101300A128A11FE260A128A110800E9
:100DA400F400F501F601F12E750874070A128A1190
:100DB400FE260A128A117508720784000A128A1123
:100DC40003200A128A110A128A1130270A128A1180
:100DD4000130F5070318F60A0030F607F12E7608FD
:100DE400803A803C031DF82E750873020318FB2E0D
:100DF400FC2ED62EFD2E0800F100831203130808E2
:100E04000F39F0007008F9007108F039790488008E
:100E140088140810F930F0006400F00B0E2F122F24
:100E240064008312031388107108F0000330031068
:100E3400F00DFF3E031D192F0310700DF0397904D6
:100E4400880088140810F930F0006400F00B272F94
:100E54002B2F64008312031388100800F1008312FF
:100E6400031308080F39F0007008F9007108F0390D
:100E74007904880088140814F930F0006400F00B39
:100E8400402F442F64008312031388100810710844
:100E9400F00003300310F00DFF3E031D4C2F031030
:100EA400700DF0397904880088140814F930F000C2
:100EB4006400F00B5A2F5E2F640083120313881012
:100EC40008100800831603138801FC3086000A12F8
:100ED4008A11B3260A128A116F2F0730F700770898
:100EE400F2000530F8007808F30080300A128A1105
:100EF400D2260A128A11FA01B12F802F8316031702
:100F04008C18852F862F802F872F7A08831203173A
:100F14008D007A08203E8400831300088C00831619
:100F240003170C158B1355308D00AA308D008C14CB
:100F34000C117A08853E0A128A11FE260A128A11B9
:100F44007A08203E8400831300080A128A1130278D
:100F54000A128A110130F7007708FA07B12F7A08CC
:100F6400203E840083138008031DB92FBA2F802FDD
:100F7400BB2F0130F7007708F2000530F80078083D
:100F8400F300C0300A128A11D2260A128A11FA0119
:100F94000A307A02031CCF2FD02FD32F6F2F6F2F3D
:100FA400D32F831603170C18D82FD92FD32FDA2F4A
:100FB4007A08831203178D00831603170C147A081A
:100FC400C53E0A128A11FE260A128A1183120317D9
:100FD4000C080A128A1130270A128A110130F7000C
:100FE4007708FA070A307A02031CF92FFA2FD32F55
:0C0FF4006F2F6F2F6F2F0A128A11002838
:02400E0032FF7F
:00000001FF
