:100000000A128A1103288316031306108711871218
:100010000716203083120313940003108316031372
:1000200000300318013094008312031306142130AA
:10003000F1007630F000F00B1B28F10B1B28640058
:100040008312031306100630930026288C1D2928DE
:100050002A2826288C110614061002309300302816
:100060008C1D3328342830288C1101309300382817
:100070008C1D3B283C2838288C11031000300318B5
:100080000130930043288C1D4628472843288C11B3
:10009000623093004B288C1D4E284F284B288C1122
:1000A00006142130F1007630F000F00B5528F10BEA
:0C00B0005528640051280A128A1100280B
:02400E003A3F37
:00000001FF
