:060000000A128A11DE2F36
:1009D4000A128A11D2250A128A110A128A11482689
:1009E4000A128A11EF2C0A128A1100287E088A0042
:1009F4007F0882000A128A11F8240A128A118000E0
:100A0400840A04087D0603190034FF0A0319FE0A48
:100A1400FC2CF20083120313871572088800071454
:100A2400FE30FF007F088705C330F100CD30F000B1
:100A3400F00B1A2DF10B1A2D0800F200F101721CB3
:100A4400242D252D292D7008FF007F08F1070310A0
:100A5400F00D0310F20C7208031D312D322D212DDF
:100A640071080800F200F730FF007F0883120313B7
:100A74008705720888000714FE30FF007F08870589
:100A8400C330F100CD30F000F00B462DF10B462DB4
:100A940008005334453454342034533450344434EB
:100AA4003A342034203420342034723470346D3499
:100AB4000034003400340034003400340034003492
:100AC4000034003400340034003400340034F401C1
:100AD400F501701C6E2D6F2D752D7208F407031827
:100AE400F50A7308F50701300310F20DF30DFF3E0C
:100AF400031D762D01300310F10CF00CFF3E031D95
:100B04007D2D70087104031D882D892D6B2D7508AA
:100B1400F1007408F0000800FA01FB01760877047C
:100B24000319952D962DCD2DFC01FC0AA42D013021
:100B34000310F60DF70DFF3E031D9A2D0130FF0043
:100B44007F08FC07F71FA72DA82D992D013003104E
:100B5400FA0DFB0DFF3E031DA92D77087902031D35
:100B6400B52D76087802031CB82DB92DC02D760852
:100B7400F8027708031CF903F9027A140130031010
:100B8400F70CF60CFF3E031DC12D0130FC02031DC2
:100B9400CC2DCD2DA82D7B08F7007A08F60008008F
:100BA400831603138701F030860088018312031330
:100BB40086017F30FF007F088316031381053030E0
:100BC4000A128A1134250A128A11C330F400CD3076
:100BD400F300F30BEB2DF40BEB2D30300A128A11DA
:100BE40034250A128A11C330F400CD30F300F30B1C
:100BF400F92DF40BF92D30300A128A1134250A121A
:100C04008A11C330F400CD30F300F30B072EF40B3C
:100C1400072E38300A128A1134250A128A11C33079
:100C2400F400CD30F300F30B152EF40B152E063023
:100C34000A128A1134250A128A11C330F400CD3005
:100C4400F300F30B232EF40B232E0C300A128A111B
:100C540034250A128A11C330F400CD30F300F30BAB
:100C6400312EF40B312E01300A128A1134250A1266
:100C74008A11C330F400CD30F300F30B3F2EF40B94
:100C84003F2E83120313C001C10108008312031312
:100C94000608F039CA00E42E80300A128A1134257D
:100CA4000A128A1183120313CC014C08203E8400DB
:100CB400831300080A128A110B250A128A110130C3
:100CC400FF007F0883120313CC0708304C02031C77
:100CD4006C2E6D2E572E8C300A128A1134250A126E
:100CE4008A110C3083120313CC004C08203E84007C
:100CF400831300080A128A110B250A128A11013083
:100D0400FF007F0883120313CC070F304C02031C2F
:100D14008C2E8D2E772E88300A128A1134250A12D1
:100D24008A11831203134108CE004008CD000A1231
:100D34008A11F3260A128A11F22E0130C007031811
:100D4400C10A0030C107133041028930031940023F
:100D5400031CAD2EAE2EB22E8830C0001330C1005D
:100D640088300A128A1134250A128A118312031355
:100D74004108CE004008CD000A128A11F3260A1257
:100D84008A11F22E0130C0020030031CC103C102DB
:100D940040084104031DCF2ED02ED42E0130C000B4
:100DA4000030C10088300A128A1134250A128A11CF
:100DB400B82EC001C10188300A128A1134250A12E2
:100DC4008A11B82E4A08703A0319DB2EC03A031967
:100DD400C42E603A03199F2E303A03194E2EF22E78
:100DE4000800E830F6000330F700831203134E08BE
:100DF400F9004D08F8000A128A118E250A128A1188
:100E0400760883120313CF00D0014F08C80050089E
:100E1400C9006430F6000030F7004908F1004808C2
:100E2400F0001830F200FC30F3000A128A11692530
:100E34000A128A11831203134D087007F8004E0832
:100E440003184E0A7107F9000A128A118E250A1234
:100E54008A11760883120313CF00D0014F08C6000D
:100E64005008C7000A30F6000030F7004908F100C6
:100E74004808F0001830F200FC30F3000A128A111E
:100E840069250A128A11700883120313CF007108AE
:100E9400D0004708F1004608F0009C30F200FF3013
:100EA400F3000A128A1169250A128A117008831242
:100EB40003134F07D10071080318710A5007D200B9
:100EC4004D085107F8004E0803184E0A5207F9005E
:100ED4000A128A118E250A128A11760883120313C4
:100EE400D300D4015308C4005408C5001830F000DE
:100EF40048080A128A111F250A128A118312031341
:100F0400CF001830F00046080A128A111F250A1271
:100F14008A1183120313D000F630F00044080A1239
:100F24008A111F250A128A118312031350074F07CF
:100F34004D07D100D2015108C2005208C3008830C5
:100F44000A128A1134250A128A11831203134808DB
:100F5400303E0A128A110B250A128A1189300A12AC
:100F64008A1134250A128A11831203134608303E6B
:100F74000A128A110B250A128A118A300A128A115E
:100F840034250A128A11831203134408303E0A12CC
:100F94008A110B250A128A118B300A128A11342500
:100FA4000A128A11831203134208303E0A128A116C
:100FB4000B250A128A11080083133E30FD00053008
:100FC400FE004B30FF00203084000A128A11FC24FA
:100FD4000A128A11BE01BF01C001C101C201C301CD
:100FE400C401C501C601C701C801C901CA01CB01B9
:0C0FF400CC01FD0183010A128A11EA2CD5
:02400E003B3F36
:00000001FF
