:1000000083177C3084007E300A128A110D200A1278
:100010008A1183010A128A11152864008001840A5A
:1000200004060319003404060E28081188108811EC
:100030000810061186108611061083160313FF3070
:100040008600031000300318013088008312031368
:100050000810861C2C282D289B28061930283128AA
:100060009B28861934283528402808140A30F100C6
:100070000030F2000A128A11EA270A128A119B281C
:10008000861D432844289B2808100030FC000030BF
:10009000FD004A28081188146430F1000030F20095
:1000A0000A128A11EA270A128A118312031388108E
:1000B00008156430F1000030F2000A128A11EA27B4
:1000C0000A128A11831203130130FC070318FD0A78
:1000D0000030FD077D08803AF00080307002031D7B
:1000E000732864307C02031C762877284A288810FD
:1000F000081188150030F4000230F3004930F20096
:10010000F030F1000A128A11EA270A128A118312CA
:100110000313881188140830F400F030F300D13054
:10012000F2008030F1000A128A11EA270A128A11BD
:10013000831203138810831203138618A028A128A2
:100140000C29061DA428A5280C298619A828A92849
:10015000B42808140A30F1000030F2000A128A11A3
:10016000EA270A128A110B29861DB728B8280B29FD
:1001700008100030FC000030FD00BE280811881473
:100180006430F1000030F2000A128A11EA270A12E4
:100190008A1183120313881008156430F1000030AF
:1001A000F2000A128A11EA270A128A118312031333
:1001B0000130FC070318FD0A0030FD077D08803A76
:1001C000F00080307002031DE72850307C02031CD1
:1001D000EA28EB28BE288810081188150030F400A2
:1001E0009830F3009630F2008030F1000A128A1144
:1001F000EA270A128A118312031388118814DC304B
:10020000F1000530F2000A128A11EA270A128A1157
:1002100083120313881019298810DC30F10005308F
:10022000F2000A128A11EA270A128A1183120313B2
:0A023000881026280A128A110028FF
:100FD4000030F5000030F600EF2F0130F50703185C
:100FE400F60A0030F60727307602031DFB2F103077
:0C0FF4007502031CFE2FFF2FEF2F0800DA
:00000001FF
