:10000000E13084000730FE008A30FF0011208000BC
:10001000840A0408EA3A03191528FF0A0319FE0A9C
:1000200006287E088A007F0882006A3084007E30BD
:100030000A128A1128200A128A11EA308400F0304C
:100040000A128A1128200A128A110A128A113028EB
:1000500064008001840A0406031900340406292878
:10006000C0308316031387000310003003180130DB
:100070008800031000300318013086000F3085001F
:100080000A128A15E7270A128A11643083120313B1
:10009000AF001930B0000A128A11EE270A128A1135
:1000A000103083120313A1000030A2001230A00010
:1000B00080300A128A1190220A128A11103083129B
:1000C0000313A1000030A2000130A000C0300A12CA
:1000D0008A1190220A128A11E83083120313AF00AA
:1000E000FD30B0000A128A11EE270A128A11E83098
:1000F00083120313AF00FD30B0000A128A11EE27FD
:100100000A128A11831203130030A3000030A200E8
:100110002530A1008030A0000A128A114B220A1259
:100120008A1100300A128A15CF270A128A11831207
:100130000313061486140615861501300A128A1157
:100140002D220A128A11103083120313A1000030ED
:10015000A2003430A00080300A128A1190220A12C4
:100160008A11103083120313A1000030A200233043
:10017000A000C0300A128A1190220A128A1100309F
:100180000A128A11DC240A128A118312031320082E
:10019000F601F6072108F701F70701300A128A1164
:1001A000DC240A128A11831203132008F001F007DD
:1001B0002108F101F10702300A128A11DC240A1227
:1001C0008A11831203132008E701E7072108E801D9
:1001D000E8077608A00082300A128A11AE230A12BC
:1001E0008A11831203137008A00088300A128A1142
:1001F000AE230A128A11831203136708A0008D3000
:100200000A128A11AE230A128A11831203130030D4
:100210007702031D0D2950307602031C1029112985
:10022000412900307702031D172956307602031842
:100230001A291B29412900306802031D21294D304C
:100240006702031C24292529412900306802031D67
:100250002B295330670203182E292F2941290A30F0
:10026000A1000030A2007130A000C6300A128A112D
:1002700090220A128A11831203130614861406159B
:10028000861500307702031D472960307602031C73
:100290004A294B297B2900307702031D51296530FB
:1002A00076020318542955297B2900306802031D62
:1002B0005B294C306702031C5E295F297B290030D3
:1002C0006802031D652953306702031868296929EC
:1002D0007B290A30A1000030A2006630A000C630A1
:1002E0000A128A1190220A128A1183120313061429
:1002F00086140615861100307702031D81294030CF
:100300007602031C84298529B52900307702031D54
:100310008B294730760203188E298F29B5290030A2
:100320006802031D952950306702031C98299929FA
:10033000B52900306802031D9F2955306702031854
:10034000A229A329B5290A30A1000030A20050300B
:10035000A000C6300A128A1190220A128A11831252
:100360000313061486140611861500306802031D57
:10037000BB2941306702031CBE29BF29EF29003089
:100380006802031DC5294C3067020318C829C92912
:10039000EF2900307702031DCF2950307602031C6D
:1003A000D229D329EF2900307702031DD9295630ED
:1003B00076020318DC29DD29EF290A30A10000307C
:1003C000A2004530A000C6300A128A1190220A12FB
:1003D0008A11831203130610861406158615003041
:1003E0006802031DF5295F306702031CF829F9290B
:1003F000292A00306802031DFF29663067020318AE
:10040000022A032A292A00307702031D092A5130C3
:100410007602031C0C2A0D2A292A00307702031DBC
:10042000132A5A3076020318162A172A292A0A3064
:10043000A1000030A2005B30A000C6300A128A1171
:1004400090220A128A1183120313061486100615CD
:100450008615BF280A128A11002883120313AE00E2
:100460002E0883138800871607127D30AF000030F6
:10047000B0000A128A11EE270A128A11831203139E
:1004800087127D30AF000030B0000A128A11EE27CB
:100490000A128A1108002308A7002208A6002108D2
:1004A000A5002008A4000A128A1134240A128A1115
:1004B000831603131812831203139817831603135A
:1004C0009816831203138B170B17831603138C16BE
:1004D0008312031318160800AD002D080A128A11A2
:1004E0002D220A128A11831203132C088313880009
:1004F000871607167D30AF000030B0000A128A114F
:10050000EE270A128A118312031387127D30AF007F
:100510000030B0000A128A11EE270A128A11080070
:10052000A3000310003003180130A400AC2A2008F7
:1005300024070A128A1109270A128A11AC0024081A
:1005400023070A128A116C220A128A1101308312BF
:100550000313A5002508A40724088313A500A601FA
:1005600022082602031DB62A21082502031CB92AE7
:10057000BA2A972A08002F082E040319C02AC12A74
:10058000F12AB0010314B00DD02A01300310AE0DD2
:10059000AF0DFF3E031DC62A0130B1003108B00780
:1005A000AF1FD32AD42AC52A2F082D02031DDA2A09
:1005B0002E082C02031CDD2ADE2AE42A2E08AC02B7
:1005C0002F08031CAD03AD0201300310AF0CAE0CBD
:1005D000FF3E031DE52A0130B002031DF02AF12A77
:1005E000D42AF22A08000030B1000030B2002F08EF
:1005F0002E040319FC2AFD2A352BB0010314B00D7B
:100600000C2B01300310AE0DAF0DFF3E031D022B6E
:100610000130B3003308B007AF1F0F2B102B012B95
:1006200001300310B10DB20DFF3E031D112B2F0839
:100630002D02031D1D2B2E082C02031C202B212B09
:10064000282B2E08AC022F08031CAD03AD02311479
:1006500001300310AF0CAE0CFF3E031D292B0130FF
:10066000B002031D342B352B102B3108AC01AC0725
:100670003208AD01AD073C2B080003100030031811
:100680000130B100AF1F452B462B4E2BAE09AF09F1
:10069000AE0A0319AF0AB1010314B10DAD1F512BFE
:1006A000522B5B2BAC09AD09AC0A0319AD0A013022
:1006B000B4003408B1060030B2000030B3002F0897
:1006C0002E040319642B652B9D2BB0010314B00D70
:1006D000742B01300310AE0DAF0DFF3E031D6A2BCE
:1006E0000130B4003408B007AF1F772B782B692B8B
:1006F00001300310B20DB30DFF3E031D792B2F08FF
:100700002D02031D852B2E082C02031C882B892B00
:10071000902B2E08AC022F08031CAD03AD0232143F
:1007200001300310AF0CAE0CFF3E031D912B0130C6
:10073000B002031D9C2B9D2B782BB108031DA12B10
:10074000A62BB209B309B20A0319B30A3208AC01E5
:10075000AC073308AD01AD07AD2B0800A100643034
:10076000AE000030AF0020088313AA00AB012A08B6
:10077000AC002B08AD000A128A113D230A128A111F
:10078000831203132C08A201A2072D08A301A307BB
:100790006430AE000030AF0020088313AA00AB0124
:1007A0002A08AC002B08AD000A128A1193270A12FE
:1007B0008A11831203132C08A801A8072D08A90188
:1007C000A9070A30AE000030AF002808AC01AC0722
:1007D0002908AD01AD070A128A11F3220A128A1103
:1007E000831203132C08A401A4072D08A501A50753
:1007F0000A30AE000030AF002808AC01AC07290871
:10080000AD01AD070A128A11BB220A128A118312A6
:1008100003132C08A601A6072D08A701A707220885
:100820008313303EAC0021080A128A116C220A128E
:100830008A118312031324088313303EAC0021086D
:10084000013E0A128A116C220A128A1183120313C2
:1008500026088313303EAC002108023E0A128A119A
:100860006C220A128A11080000302706031D422C50
:1008700000302606031D422C00302506031D422CA5
:100880006E302406031D452C462C4C2C8D308316CF
:10089000031399001811DB2C00302706031D5A2C76
:1008A00000302606031D5A2C04302506031D5A2C41
:1008B000B0302406031D5D2C5E2C642C333083166F
:1008C000031399001811DB2C00302706031D722C2E
:1008D00000302606031D722C09302506031D722CDC
:1008E00060302406031D752C762C7C2C1930831661
:1008F000031399001811DB2C00302706031D8A2CE6
:1009000000302606031D8A2C12302506031D8A2C72
:10091000C0302406031D8D2C8E2C942C0C30831695
:10092000031399001811DB2C00302706031DA22C9D
:1009300000302606031DA22C25302506031DA22CFF
:1009400080302406031DA52CA62CAC2C1930831650
:10095000031399001815DB2C00302706031DBA2C51
:1009600000302606031DBA2CE1302506031DBA2CE3
:1009700000302406031DBD2CBE2CC42C143083165D
:10098000031399001815DB2C00302706031DD22C09
:1009900001302606031DD22CC2302506031DD22CA1
:1009A00000302406031DD52CD62CDB2C0A308316F0
:1009B000031399001815080083120313A20083166D
:1009C00003139F13193083120313A3002308E000BD
:1009D000A208031DEC2CED2C292D0030D600003090
:1009E000D7000310003003180130DE00F72C03108D
:1009F0000030031801309F001F14FE2C0130E0026C
:100A00006008FF3A031D052D062DFE2C05309F00C2
:100A1000092D1F08013A031D0E2D0F2D092D1E084B
:100A2000A300A4012308D4002408D50054085607C5
:100A3000D60055080318550A5707D7000130A30000
:100A40002308DE070A305E02031C272D282DF72C11
:100A5000E22E22088313013A031D2F2D302D692D1C
:100A60000030D6000030D7000310003003180130EA
:100A7000DE003A2D08309F001F143E2D0130E002A9
:100A80006008FF3A031D452D462D3E2D0D309F0079
:100A9000492D1F08093A031D4E2D4F2D492D1E08C3
:100AA000A300A4012308D4002408D5005408560745
:100AB000D60055080318550A5707D7000130A30080
:100AC0002308DE070A305E02031C672D682D3A2DCD
:100AD000E22E2208023A031D6E2D6F2DA82D003044
:100AE000D6000030D7000310003003180130DE00BC
:100AF000792D10309F001F147D2D0130E002600819
:100B0000FF3A031D842D852D7D2D15309F00882DE6
:100B10001F08113A031D8D2D8E2D882D1E08A30050
:100B2000A4012308D4002408D50054085607D60091
:100B300055080318550A5707D7000130A3002308AA
:100B4000DE070A305E02031CA62DA72D792DE22EAA
:100B50002208033A031DAD2DAE2DE72D0030D6003F
:100B60000030D7000310003003180130DE00B82D2C
:100B700018309F001F14BC2D0130E0026008FF3ABE
:100B8000031DC32DC42DBC2D1D309F00C72D1F0874
:100B9000193A031DCC2DCD2DC72D1E08A300A4018D
:100BA0002308D4002408D50054085607D600550859
:100BB0000318550A5707D7000130A3002308DE07A2
:100BC0000A305E02031CE52DE62DB82DE22E220828
:100BD000043A031DEC2DED2D262E0030D6000030FA
:100BE000D7000310003003180130DE00F72D20304D
:100BF0009F001F14FB2D0130E0026008FF3A031D27
:100C0000022E032EFB2D25309F00062E1F08213AB1
:100C1000031D0B2E0C2E062E1E08A300A401230874
:100C2000D4002408D50054085607D60055080318E8
:100C3000550A5707D7000130A3002308DE070A3002
:100C40005E02031C242E252EF72DE22E2208053AE3
:100C5000031D2B2E2C2E652E0030D6000030D70021
:100C60000310003003180130DE00362E28309F00BC
:100C70001F143A2E0130E0026008FF3A031D412E96
:100C8000422E3A2E2D309F00452E1F08293A031D73
:100C90004A2E4B2E452E1E08A300A4012308D40083
:100CA0002408D50054085607D60055080318550ADD
:100CB0005707D7000130A3002308DE070A305E0281
:100CC000031C632E642E362EE22E2208063A031DE4
:100CD0006A2E6B2EA42E0030D6000030D7000310F1
:100CE000003003180130DE00752E30309F001F14D5
:100CF000792E0130E0026008FF3A031D802E812E1C
:100D0000792E35309F00842E1F08313A031D892E1D
:100D10008A2E842E1E08A300A4012308D4002408D0
:100D2000D50054085607D60055080318550A57072A
:100D3000D7000130A3002308DE070A305E02031C3F
:100D4000A22EA32E752EE22E2208073A031DA92EED
:100D5000AA2EE22E0030D6000030D700031000305B
:100D600003180130DE00B42E38309F001F14B82E57
:100D70000130E0026008FF3A031DBF2EC02EB82EDE
:100D80003D309F00C32E1F08393A031DC82EC92EBF
:100D9000C32E1E08A300A4012308D4002408D500F4
:100DA00054085607D60055080318550A5707D700A8
:100DB0000130A3002308DE070A305E02031CE12E87
:100DC000E22EB42E0A30AE000030AF005608AC015F
:100DD000AC075708AD01AD070A128A11F3220A12B7
:100DE0008A11831203132C08A3002308DF005F0875
:100DF000A300A4012308A0002408A100FF2E0800DE
:100E0000FE00FE1F082F83137E18831700080800BA
:100E10000408FE0007308A007E088207003442344E
:100E200053344434203452344F3442344F345434E5
:100E3000203443344F344E34543452344C34003420
:100E40002D342D34483441344E34443420344D3420
:100E50004F34563445344D3445344E3454342D34A7
:100E60000034203420342034203420342034203402
:100E700020342034203420342034203420342034D2
:100E80002034003458343A34203420342034203490
:100E900059343A342034203420345A343A3420340B
:100EA00020342034003453345434413452345434D4
:100EB0002034203420342034203400345234493457
:100EC00047344834543420342034203420342034FF
:100ED0000034523445345634453452345334453456
:100EE00020342034203400344C34453446345434D7
:100EF000203420342034203420342034003453343F
:100F000054344F34503420342034203420342034AE
:100F10002034003431343234333434340034C03487
:100F20000034C03401340310003003180130B00025
:100F3000AD1F9B2F9C2FA42FAC09AD09AC0A031940
:100F4000AD0AB0010314B00DAF1FA72FA82FAD2F0E
:100F5000AE09AF09AE0A0319AF0A2F082E04031910
:100F6000B22FB32FE32FB1010314B10DC22F013003
:100F70000310AE0DAF0DFF3E031DB82F0130B200C0
:100F80003208B107AF1FC52FC62FB72F2F082D026C
:100F9000031DCC2F2E082C02031CCF2FD02FD62FB1
:100FA0002E08AC022F08031CAD03AD020130031064
:100FB000AF0CAE0CFF3E031DD72F0130B102031D55
:100FC000E22FE32FC62FB008031DE72FEC2FAC094B
:100FD000AD09AC0A0319AD0AED2F0800EF2F01305F
:100FE000AF020030031CB003B002FF303006031D17
:100FF000FB2FFF302F06031DFE2FFF2FEF2F0800C2
:101F9E0083120313A00020088313013A031DD82FC8
:101FAE00D92FE02F831603138C16831203131816E2
:101FBE00E62F831603138C128312031318120800D4
:101FCE0038300A128A112D220A128A1506300A1288
:101FDE008A112D220A128A150C300A128A112D220C
:101FEE000A128A1501300A128A112D220A128A1536
:021FFE000800D9
:00000001FF
