:1000000000308A00C62A00000A108A100A118207EE
:10001000503461347334733477346F3472346434ED
:1000200020344234613473346534643400340A104B
:100030008A100A1182074334693472346334753488
:1000400069347434203442347234653461346B342E
:100050006534723400340A108A100A11820745345C
:100060006E347434653472342034503461347334F3
:10007000733477346F34723464343A3400340A1091
:100080008A100A11820743346F3472347234653433
:1000900063347434203450346134733473347734BB
:1000A0006F347234643400340A108A100A118207E3
:1000B0004C346F346134643420343134203441346E
:1000C0006334743469347634653400340A108A1029
:1000D0000A1182074C346F34613464342034313473
:1000E000203449346E346134633474346934763482
:1000F000653400340A108A100A1182074C346F34B8
:100100006134643420343234203441346334743400
:1001100069347634653400340A108A100A11820773
:100120004C346F34613464342034323420344934F4
:100130006E34613463347434693476346534003435
:100140000A108A100A118207573472346F346E34E1
:1001500067342034503461347334733400346808A5
:10016000F039E90083168601831269088600831638
:100170000611831206155330F700F70BBD288316BE
:10018000061183120611680EF700F030F7057708A4
:10019000F039E90083168601831269088600831608
:1001A0000611831206155330F700F70BD528831676
:1001B00006118312061100340230E800AF20283007
:1001C000E800AF200C30E800AF200630E800AF2098
:1001D0008030E800AF208A110A12EB2A6608F03955
:1001E000E70067080138E800831686018312680873
:1001F000860083160611831206155330F700F70B9D
:10020000FF288316061183120611660EF700F030E0
:10021000F7057708F039E70067080138E80083162A
:10022000860183126808860083160611831206155C
:100230005330F700F70B1A298316061183120611A3
:100240000034E608031D2A2980306507E700E8002E
:10025000AF203129660B3129C0306507E700E8007F
:10026000AF20003466308400831300080319462948
:100270000130F800F701F70B3B29F80B3A294A3017
:10028000F700F70B41294429800B3829003401304D
:10029000E800AF208030E800AF2000348316081259
:1002A0008312081283168812831288168316081385
:1002B000831208178316881383128817831608146D
:1002C000831208186D29831608148312081C6329E9
:1002D0003730F8007F2A7B2A9929831688148312E5
:1002E00088187C29831688148312881C722934305C
:1002F000F8007F2A7B2A992983160815831208198A
:100300008B29831608158312081D81293130F800C6
:100310007F2A7B2A9929831688158312881999299F
:10032000831688158312881D90296330F8007F2A70
:100330007B2A8316081283120816831688128312EA
:1003400088128316081383120817831688138312E2
:1003500088178316081483120818B82983160814FE
:100360008312081CAE293830F8007F2A7B2AE42942
:100370008316881483128818C72983168814831259
:10038000881CBD293530F8007F2A7B2AE429831692
:10039000081583120819D629831608158312081D1B
:1003A000CC293230F8007F2A7B2AE429831688156D
:1003B00083128819E429831688158312881DDB2986
:1003C0003030F8007F2A7B2A831608128312081621
:1003D0008316881283128816831608138312081353
:1003E000831688138312881783160814831208183B
:1003F000032A831608148312081CF9293930F800DF
:100400007F2A7B2A2F2A8316881483128818122A9F
:10041000831688148312881C082A3630F8007F2A35
:100420007B2A2F2A8316081583120819212A83167E
:1004300008158312081D172A3330F8007F2A7B2AFB
:100440002F2A83168815831288192F2A8316881558
:100450008312881D262A3D30F8007F2A7B2A8316C6
:1004600008128312081683168812831288168316C0
:1004700008138312081783168813831288138316B0
:100480000814831208184E2A831608148312081CB5
:10049000442A2F30F8007F2A7B2A7A2A8316881470
:1004A000831288185D2A831688148312881C532AA5
:1004B0002A30F8007F2A7B2A7A2A831608158312AD
:1004C00008196C2A831608158312081D622A2D301C
:1004D000F8007F2A7B2A7A2A8316881583128819C6
:1004E0007A2A831688158312881D712A2B30F8000A
:1004F0007F2A7B2A4E295330F700F70B7D2A8A1179
:100500000A121A2B6608FA006508840083137A1809
:1005100083170008E9006808FA006708840083135D
:100520007A18831700086902031DAD2A6608FA00CD
:100530006508840083137A1883178008031DA32A93
:100540000030F800C52A6608FA006508E50A0319B4
:10055000E60AE70A0319E80A822A6608FA0065082B
:1005600084008313661883170008E9006808FA00FE
:10057000670884008313681883170008690203184A
:10058000C32AFF30C42A0130F800003484018313E9
:100590001F30830583161F149F141F159F1183128C
:1005A000A001A1013130A2003230A3003330A400F9
:1005B0003430A500A6013930A7003830A800373004
:1005C000A9003630AA00AB01C1010130C400C5004A
:1005D000FF30C600DC28E501650804200038031957
:1005E000F52AE50AE600EE20EC2AE5010130E600F6
:1005F0002121E5016508172000380319032BE50ABE
:10060000E600EE20FA2A0630E500FA30E600322154
:10061000E50B052B4721E50165082B200038031960
:10062000152BE50AE600EE200C2BE5010130E60073
:1006300021214E297808B6003608633C031D342B6F
:100640004721E501E6012121E50165082B2000385D
:1006500003192E2BE50AE600EE20252BE5010130DB
:10066000E6002121C101492B36083D3C031D3F2BEB
:100670002C3041078400831380014A2B492B360814
:10068000E600EE202C3041078400831336088000FA
:10069000C10A192BE5010130E6002121E6012230D3
:1006A000E500E8012C30E70082227808C200E6016C
:1006B0002730E500E8012C30E70082227808C300EB
:1006C000C208031DB22BE501E6012121E501650801
:1006D0003F2000380319702BE50AE600EE20672B57
:1006E000E5010130E6002121440B922B071446104E
:1006F0004608831687008312E501650854200038F8
:100700000319862BE50AE600EE207D2B0230E5007A
:100710009630E6003221E50B882BC408031D00301B
:100720000A2BB12BC408031DB12B07104610460835
:10073000831687008312E5016508662000380319D7
:10074000A52BE50AE600EE209C2B0230E500963052
:10075000E6003221E50BA72B440BAF2BB02B00306A
:100760000A2B172CC308031D042CE501E6012121E7
:10077000E50165083F2000380319C22BE50AE600B1
:10078000EE20B92BE5010130E6002121450BE42BD9
:100790008714C6104608831687008312E501650892
:1007A0007A2000380319D82BE50AE600EE20CF2B7B
:1007B0000230E5009630E6003221E50BDA2BC50861
:1007C000031D00300A2B032CC508031D032C8710C2
:1007D000C6104608831687008312E50165088C2041
:1007E00000380319F72BE50AE600EE20EE2B023065
:1007F000E5009630E6003221E50BF92B450B012C84
:10080000022C00300A2B172C4721E5016508A02097
:10081000003803190F2CE50AE600EE20062C023002
:10082000E5009630E6003221E50B112C0A2B63001F
:02400E00733FFE
:00000001FF
;PIC16F877
