:03000000020AAD44
:0C0AAD00787FE4F6D8FD758151020AF450
:100BBE00414C484F434F4C204445544543544E47B7
:100BCE0000464F5220504F4C4943452020202020B4
:100BDE002000202020202020202020202020202027
:100BEE002020002020414C484F434F4C2053454E6F
:100BFE005345440041540041542B434D47463D312B
:100C0E000020534554204D4F42204E4F3A20202075
:100C1E002000415444004154480041542B434D4759
:100C2E00533D00414C484F434F4C2053454E534586
:020C3E00440070
:080E7F0002490000024D0000D1
:100E40007F38120E287F06120E287F0C120E287F84
:040E500001020E2865
:100E28008F80D2A5C2A6C2A77F7D7E00120DFAC20E
:080E3800A57F7D7E00020DFA8A
:100D8300E54A2430FFAE4E74212EF8A607EE24C0A8
:070D9300FF74212EF8E6FDBC
:100D9A008D0F120E28850F80D2A7D2A5C2A67F7DFD
:0E0DAA007E00120DFAC2A57F7D7E00020DFABA
:0E0D05007A0B79E07BFF750C00750D107FC036
:080D13008F088B098A0A890B85
:100D1B00E4F50EC3E50E950DE4950C501CE5082586
:100D2B000EFFAB09AA0AA90B850E82758300120A66
:090D3B001AFD120D9A050E80DA72
:010D4400228C
:020D45008F4FCE
:100D4700ED75F06484ABF07A007C007D0AAF037E1A
:100D570000120A478F827E00AF037C007D0A120AC9
:100D6700478C508D51AF82EF2430FDAF4F120D9A53
:0C0D7700E54F04FFE5512430FD020D9A09
:020CAF008F10A4
:100CB100ED75F06484751100F512ED75F06484AB87
:100CC100F07A007C007D0AAF037E00120A478E1382
:100CD1008F147E00AF037C007D0A120A478C158DAC
:100CE10016E5122430FDAF10120D9AE51004FFE550
:100CF100142430FD120D9AE5102402FFE51624306C
:040D0100FD020D9A48
:06097C008F17AB05AA0471
:100982007C277D10AF03AE02120A47AA04AB057C96
:10099200037DE8AF03AE02120A478F82AE02AF03B5
:1009A2007C037DE8120A47AB05AA047C007D64AF94
:1009B20003AE02120A478E188F19AE02AF037C00F3
:1009C2007D64120A47AB05AA047C007D0AAF03AE20
:1009D20002120A478E1A8F1BAE02AF037C007D0AF9
:1009E200120A478C1C8D1DAF82EF2430FDAF171207
:1009F2000D9AE51704FFE5192430FD120D9AE5174B
:100A02002402FFE51B2430FD120D9AE5172403FF93
:080A1200E51D2430FD020D9AE0
:100DE1007FE87EFD120DFA7FE87EFD120DFA7FE8A5
:090DF1007EFD120DFA7FE87EFD83
:0B0DFA00EF1FAC0670011E4C70F622CB
:0E0E6600D2AF759850438920120B39D28E22DC
:0A0E5400120E5E7F0D120E5E7F0A83
:080E5E008F993099FDC2992221
:060E05008B088A09890A2E
:100E0B00E4FEEEC39D5015AB08AA09A90A8E8275A4
:0C0E1B008300120A1AFF120E5E0E80E621
:010E270022A8
:100B39008F0B8E0A8D098C08E47F6EFEFDFCAB0BD2
:100B4900AA0AA909A808C3120A9C7004758D722201
:100B5900E47F607E09FDFCAB0BAA0AA909A808C3BA
:100B6900120A9C7004758DF422E47FC07E12FDFC8C
:100B7900AB0BAA0AA909A808C3120A9C7004758DAF
:100B8900FA22E47F807E25FDFCAB0BAA0AA909A8FD
:100B990008C3120A9C7004758DFD227F007EC27DF8
:100BA900017C00AB0BAA0AA909A808C3120A9C7008
:050BB90003758DFF2211
:0B0E7400EF64017003D2AC22C2AC227C
:100C4000120E40C291120DF67BFF7A0B79BE750C25
:100C500000750D107F80120D137A0B79CF120D09DC
:100C60007F807E257D007C00120E66120DE1120D44
:100C7000B8120DEF120D05209015D2917BFF7A0B63
:100C800079F1120D0B20000ED2001208D98007C294
:100C900000C291120D052092DE2092097FD07E07BE
:0F0CA000120DFA80F47F01120E2812080080C88E
:100DB8007BFF7A0C79027D02120E05120E57120D76
:100DC800EF7BFF7A0C79057D09120E05120E57127A
:090DD8000DF67FE87EFD020DFA24
:100800007BFF7A0C790F750C00750D107F80120D2F
:10081000137F887E13120DFA7F0E120E2820960386
:100820000208BEE54E24C0FF120E2820932030930C
:10083000FD7F887E13120DFA054EE54E7002054DC0
:10084000D39409E54D94004005E4F54DF54E209212
:100850001F3092FD7F887E13120DFAE54E154E7003
:1008600002154DC3E54D94005006754D00754E09B7
:100870002094233094FD7F887E13120DFA054AE5FB
:100880004A70020549D39409E54994004005E4F50E
:1008900049F54A120D832095843095FD7F887E139B
:1008A000120DFAE54A154A70021549C3E54994004C
:1008B0005006754900754A09120D8302081D7F0C08
:1008C000120E287F01120E287BFF7A0B79BE750C61
:0908D00000750D107F80020D136C
:1008D9007F887E13120DFA7BFF7A0C79207D031233
:1008E9000E05E4F54BF54C7421254CF8E6FF120E84
:1008F9005E054CE54C7002054BC3940AE54B940028
:1009090040E57F3B120E54120DE1120DE1120DF676
:100919007BFF7A0C79247D03120E05120E57120DF6
:10092900E87BFF7A0C79287D08120E057F22120ECA
:100939005EE4F54BF54C7421254CF8E6FF120E5E8A
:10094900054CE54C7002054BC3940AE54B940040F5
:10095900E57F22120E54120DEF7BFF7A0C79317D5F
:100969000F120E057F1A120E5E120DEF7FE87EFD43
:03097900020DFA72
:100AB900020C40E493A3F8E493A34003F68001F207
:100AC90008DFF48029E493A3F85407240CC8C3333E
:100AD900C4540F4420C8834004F456800146F6DF0D
:100AE900E4800B0102040810204080900E7FE47E10
:100AF900019360BCA3FF543F30E509541FFEE49302
:100B0900A360010ECF54C025E060A840B8E493A3C8
:100B1900FAE493A3F8E493A3C8C582C8CAC583CAF3
:100B2900F0A3C8C582C8CAC583CADFE9DEE780BEAB
:010E8700006A
:100A1A00BB010CE58229F582E5833AF583E0225091
:100A2A0006E92582F8E622BBFE06E92582F8E222DB
:0D0A3A00E58229F582E5833AF583E49322F5
:100A4700BC000BBE0029EF8DF084FFADF022E4CC93
:100A5700F875F008EF2FFFEE33FEEC33FCEE9DEC5C
:100A6700984005FCEE9DFE0FD5F0E9E4CEFD22EDA2
:100A7700F8F5F0EE8420D21CFEADF075F008EF2FEC
:100A8700FFED33FD4007985006D5F0F222C398FDDD
:050A97000FD5F0EA227A
:100A9C00EB9FF5F0EA9E42F0E99D42F0E89C45F0B0
:010AAC002227
:00000001FF
