:060000000A128A112A2FEA
:100E540083010A128A112E2F8316031307148801A3
:100E6400831203138801362F0718392F3A2F362F90
:100E740001300A128A11A0270A128A1103300A12B9
:100E84008A11A0270A128A1107300A128A11A02790
:100E94000A128A110F300A128A11A0270A128A1123
:100EA400582FFF30831203138800582F8312031323
:100EB40007185D2F5E2F532F362F362F362F362FE0
:100EC4000A128A11002831308312031390000B3068
:100ED4008F00DB308E008B170B1710140130F000DD
:100EE4000030F1007108803AFF0080307F02031D5A
:100EF4007D2F06307002031C802F812F842F9F2F9B
:100F04009F2F842F831203130C1C892F8A2F842F65
:100F14000C100130F0070318F10A0030F1077108D2
:100F2400803AFF0080307F02031D9A2F0630700242
:100F3400031C9D2F9E2F842F9F2F0800F300F40184
:100F4400F5017508803AFF0080307F02031DAC2F45
:100F540008307402031CAF2FB02FB22FD82FD82F14
:100F64007308F200740AB82F0310F20DFF3E031D3C
:100F7400B62F72088312031388000A128A11652798
:100F84000A128A110130F4070318F50A0030F50734
:100F94007508803AFF0080307F02031DD32F08308C
:100FA4007402031CD62FD72FB22FD82F0730F60088
:100FB4000030F700F71FDF2FE02FE22FFF2FFF2F66
:100FC4007308F200760AE82F0310F20DFF3E031DAA
:100FD400E62F72088312031388000A128A11652708
:100FE4000A128A11FF30F6070318F70AFF30F707D1
:0C0FF400F71FFD2FFE2FE22FFF2F08003B
:02400E0032FF7F
:00000001FF
