:060000000A128A11532FC1
:100EA60083010A128A11572F831603138714071416
:100EB600FF308312031387008316031388018312FE
:100EC60003138801662F0A128A11AB270A128A11A8
:100ED600662F662F0A128A110028313083120313F7
:100EE60090000B308F00DB308E008B170B17101421
:100EF6000130F0000030F1007108803AFF008030C8
:100F06007F02031D882F06307002031C8B2F8C2F47
:100F16008F2FAA2FAA2F8F2F831203130C1C942F07
:100F2600952F8F2F0C100130F0070318F10A0030AF
:100F3600F1077108803AFF0080307F02031DA52F5C
:100F460006307002031CA82FA92F8F2FAA2F080086
:100F560083120313071CB02FB12FF52F8718B42F58
:100F6600B52FF52FF201F3017308803AFF008030A8
:100F76007F02031DC02F0B307202031CC32FC42F28
:100F8600C62FE22FE22F8312031388140A128A1146
:100F960070270A128A110130F2070318F30A00308B
:100FA600F3077308803AFF0080307F02031DDD2FB0
:100FB6000B307202031CE02FE12FC62FE22F8312A3
:100FC60003138718E72FE82FF02F881008150A1249
:100FD6008A1170270A128A11E22F0811AB2FE22F0D
:100FE600E22FAB2F881008110A128A1170270A12F5
:0A0FF6008A11AB2FAB2FAB2F0800C0
:00000001FF
