:100000000A128A115C2A00308A000408840A8207D6
:100010000034203420342034203420342034203460
:100020002034203420342034203420342034203430
:100030002034003458343A342034203420342034EE
:1000400059343A342034203420345A343A34203469
:100050002034203400342D342D342D342D342D34DF
:100060002D3454344534533454342D342D342D34FC
:100070002D342D342D3400342D342D342D342D34A5
:100080002D3441344E344F344C34413447342D34C4
:0A0090002D342D342D342D340034AE
:1004A80064008001840A0406031900340406552AEE
:1004B80083132030840033300A128A1154220A121E
:1004C8008A1183010A128A11F42C6B2A6B2A0130D3
:1004D800F0020030031CF103F102FF307106031D26
:1004E800772AFF307006031D7A2A7B2A6B2A7C2A1A
:1004F800080038300A128A1196220A128A11063028
:100508000A128A1196220A128A110C300A128A11CA
:1005180096220A128A1101300A128A1196220A12A8
:100528008A110800F20072088312031388008716E4
:1005380007127D30F0000030F1000A128A1169229A
:100548000A128A118312031387127D30F0000030DB
:10055800F1000A128A1169220A128A110800F400AD
:1005680074080A128A1196220A128A1173088312D1
:1005780003138800871607167D30F0000030F1005D
:100588000A128A1169220A128A1183120313871226
:100598007D30F0000030F1000A128A1169220A1237
:1005A8008A110800FA00FB01F02A7B08750784000D
:1005B8000A128A1103200A128A11F8007808F30037
:1005C8007B087A070A128A11B3220A128A110130AB
:1005D800F8007808FB07F02A7B08F800F90177088B
:1005E8007902031DF92A76087802031CFC2AFD2AE1
:1005F800D92AFE2A0800710870040319042B052B58
:100608003B2BF5010314F50D152B01300310F00DEC
:10061800F10DFF3E031D0A2B0130F4007408F507A5
:10062800152BF11F182B192B092B1B2B1B2B7108B2
:100638007302031D212B70087202031C242B252B27
:100648002C2B7008F2027108031CF303F3022C2B05
:1006580001300310F10CF00CFF3E031D2D2B01306F
:10066800F502031D382B392B1B2B3B2B3B2B730817
:10067800F101F1077208F001F007422B0800F501BB
:10068800F6017108700403194A2B4B2B892BF701CB
:100698000314F70D5B2B01300310F00DF10DFF3E35
:1006A800031D502B0130F4007408F7075B2BF11F72
:1006B8005E2B5F2B4F2B612B612B01300310F50D47
:1006C800F60DFF3E031D622B71087302031D6E2B8E
:1006D80070087202031C712B722B7A2B7008F202BD
:1006E8007108031CF303F30275147A2B013003100D
:1006F800F10CF00CFF3E031D7B2B0130F702031DAC
:10070800862B872B612B892B892B7608F101F10722
:100718007508F001F007902B0800F601F31F952BE0
:10072800962B9F2BF209F309F20A0319F30AF60133
:100738000314F60D9F2BF11FA22BA32BA92BF00955
:10074800F109F00A0319F10AA92B710870040319B9
:10075800AE2BAF2BE52BF5010314F50DBF2B0130A4
:100768000310F00DF10DFF3E031DB42B0130F40012
:100778007408F507BF2BF11FC22BC32BB32BC52B56
:10078800C52B71087302031DCB2B70087202031C62
:10079800CE2BCF2BD62B7008F2027108031CF30363
:1007A800F302D62B01300310F10CF00CFF3E031DB1
:1007B800D72B0130F502031DE22BE32BC52BE52BCC
:1007C800E52B7608031DE92BEF2BF209F309F20A52
:1007D8000319F30AEF2B7308F101F1077208F0010E
:1007E800F007F62B0800F601F11FFB2BFC2B052C5C
:1007F800F009F109F00A0319F10AF6010314F60DDC
:10080800052CF31F082C092C132CF209F309F20A02
:100818000319F30A0130F4007408F606132CF701E3
:10082800F8017108700403191A2C1B2C592CF501B6
:100838000314F50D2B2C01300310F00DF10DFF3EC4
:10084800031D202C0130F4007408F5072B2CF11F30
:100858002E2C2F2C1F2C312C312C01300310F70D8E
:10086800F80DFF3E031D322C71087302031D3E2C48
:1008780070087202031C412C422C4A2C7008F202A8
:100888007108031CF303F30277144A2C0130031098
:10089800F10CF00CFF3E031D4B2C0130F502031D3B
:1008A800562C572C312C592C592C7608031D5D2CAD
:1008B800632CF709F809F70A0319F80A632C780872
:1008C800F101F1077708F001F0076A2C080083129C
:1008D8000313BB006430F0000030F1007908FA001F
:1008E800FB017A08F2007B08F3000A128A11F72349
:1008F8000A128A11710883120313B401B40770082D
:10090800B301B3076430F0000030F1007908FA0051
:10091800FB017A08F2007B08F3000A128A1191237E
:100928000A128A11710883120313BA01BA077008F0
:10093800B901B9070A30F0000030F1003A08F301B4
:10094800F3073908F201F2070A128A1143230A123F
:100958008A11710883120313B601B6077008B5012E
:10096800B5070A30F0000030F1003A08F301F30748
:100978003908F201F2070A128A11FF220A128A11B3
:10098800710883120313B801B8077008B701B707D5
:100998003308303EFA007A08F3003B080A128A113D
:1009A800B3220A128A11831203133508303EFA0063
:1009B8007A08F3003B08013E0A128A11B3220A1290
:1009C8008A11831203133708303EFA007A08F300BD
:1009D8003B08023E0A128A11B3220A128A11080041
:1009E800C03083160313870088010F3085000A1270
:1009F8008A117D220A128A116430F0001930F10040
:100A08000A128A1169220A128A113430FD007D08FF
:100A1800F5001030F6000030F70080300A128A1115
:100A2800D6220A128A112330FD007D08F500103005
:100A3800F6000030F700C0300A128A11D6220A12D6
:100A48008A11E830F000FD30F1000A128A1169229B
:100A58000A128A11E830F000FD30F1000A128A11FA
:100A680069220A128A1101300A128A1196220A1280
:100A78008A111230FD007D08F5001030F6000030B4
:100A8800F70080300A128A11D6220A128A11013020
:100A9800FD007D08F5001030F6000030F700C0308A
:100AA8000A128A11D6220A128A115A2D00300A1205
:100AB8008A11AB250A128A11790883120313AB0134
:100AC800AB077808AA01AA0701300A128A11AB25D8
:100AD8000A128A11790883120313AD01AD07780849
:100AE800AC01AC0702300A128A11AB250A128A112E
:100AF800790883120313AF01AF077808AE01AE0778
:100B08002A08FD007D08F90082300A128A116B2438
:100B18000A128A11831203132C08FD007D08F900BC
:100B280088300A128A116B240A128A11831203135D
:100B38002E08FD007D08F9008D300A128A116B24F9
:100B48000A128A115A2D5A2D0A128A110028FC00FD
:100B5800831603139F131930FA007A0883120313BC
:100B6800B000FC08031DB92DBA2DF82DA601A70168
:100B7800B1010A303102031CC22DC32DC52DE22F4D
:100B8800E22F9F011F14C92DC92D0130B002300872
:100B9800FF3A031DD02DD12DC92DD22D05309F0030
:100BA800D62DD62D1F08013A031DDB2DDC2DD62DA1
:100BB800DD2D1E08FA00FB017A08A4007B08A500B9
:100BC80024082607A60025080318250A2707A700D2
:100BD8000130FA007A08B1070A303102031CF52DFA
:100BE800F62DC52DE22FE22F7C08013A031DFD2DBD
:100BF800FE2D3D2EA601A701B1010A303102031CCA
:100C0800062E072E092EE22FE22F08309F001F1410
:100C18000E2E0E2E0130B0023008FF3A031D152E9D
:100C2800162E0E2E172E0D309F001B2E1B2E1F0862
:100C3800093A031D202E212E1B2E222E1E08FA00F3
:100C4800FB017A08A4007B08A50024082607A60053
:100C580025080318250A2707A7000130FA007A0893
:100C6800B1070A303102031C3A2E3B2E092EE22F1F
:100C7800E22F7C08023A031D422E432E822EA60143
:100C8800A701B1010A303102031C4B2E4C2E4E2E07
:100C9800E22FE22F10309F001F14532E532E0130E5
:100CA800B0023008FF3A031D5A2E5B2E532E5C2EDD
:100CB80015309F00602E602E1F08113A031D652E07
:100CC800662E602E672E1E08FA00FB017A08A40023
:100CD8007B08A50024082607A60025080318250A6E
:100CE8002707A7000130FA007A08B1070A30310255
:100CF800031C7F2E802E4E2EE22FE22F7C08033A13
:100D0800031D872E882EC72EA601A701B1010A3020
:100D18003102031C902E912E932EE22FE22F1830D1
:100D28009F001F14982E982E0130B0023008FF3A09
:100D3800031D9F2EA02E982EA12E1D309F00A52E9C
:100D4800A52E1F08193A031DAA2EAB2EA52EAC2ED0
:100D58001E08FA00FB017A08A4007B08A5002408F5
:100D68002607A60025080318250A2707A70001302B
:100D7800FA007A08B1070A303102031CC42EC52EC6
:100D8800932EE22FE22F7C08043A031DCC2ECD2EA1
:100D98000C2FA601A701B1010A303102031CD52E80
:100DA800D62ED82EE22FE22F20309F001F14DD2EE2
:100DB800DD2E0130B0023008FF3A031DE42EE52E87
:100DC800DD2EE62E25309F00EA2EEA2E1F08213A56
:100DD800031DEF2EF02EEA2EF12E1E08FA00FB015D
:100DE8007A08A4007B08A50024082607A600250881
:100DF8000318250A2707A7000130FA007A08B10767
:100E08000A303102031C092F0A2FD82EE22FE22FB5
:100E18007C08053A031D112F122F512FA601A70197
:100E2800B1010A303102031C1A2F1B2F1D2FE22F8C
:100E3800E22F28309F001F14222F222F0130B002EA
:100E48003008FF3A031D292F2A2F222F2B2F2D3050
:100E58009F002F2F2F2F1F08293A031D342F352FBE
:100E68002F2F362F1E08FA00FB017A08A4007B08F2
:100E7800A50024082607A60025080318250A270721
:100E8800A7000130FA007A08B1070A303102031CC2
:100E98004E2F4F2F1D2FE22FE22F7C08063A031DFD
:100EA800562F572F962FA601A701B1010A303102FC
:100EB800031C5F2F602F622FE22FE22F30309F003C
:100EC8001F14672F672F0130B0023008FF3A031D47
:100ED8006E2F6F2F672F702F35309F00742F742F50
:100EE8001F08313A031D792F7A2F742F7B2F1E0884
:100EF800FA00FB017A08A4007B08A500240826074D
:100F0800A60025080318250A2707A7000130FA00BC
:100F18007A08B1070A303102031C932F942F622FED
:100F2800E22FE22F7C08073A031D9B2F9C2FE22F0C
:100F3800A601A701B1010A303102031CA42FA52F75
:100F4800A72FE22FE22F38309F001F14AC2FAC2FB1
:100F58000130B0023008FF3A031DB32FB42FAC2F75
:100F6800B52F3D309F00B92FB92F1F08393A031DFF
:100F7800BE2FBF2FB92FC02F1E08FA00FB017A0819
:100F8800A4007B08A50024082607A6002508031846
:100F9800250A2707A7000130FA007A08B1070A30A6
:100FA8003102031CD82FD92FA72FE22FE22FE22FCF
:100FB800E22FE22FE22FE22FE22FE22F0A30F00099
:100FC8000030F1002708F301F3072608F201F207C1
:100FD8000A128A1143230A128A117008FA007A0841
:100FE80083120313B2003208FA00FB017A08F800F2
:080FF8007B08F900FF2F08003F
:02400E0032FF7F
:00000001FF
