:100000000A128A11222F00308A000408840A82070B
:1000100000342034203420342034573445344C34D8
:1000200043344F344D34453420342034203420348C
:10003000203400344C344334443420344434493480
:10004000533450344C3441345934203454344534CE
:0600500053345434003467
:100E440083010A128A11BC2F282F282F0130F002A7
:100E54000030031CF103F102FF307106031D342F2F
:100E6400FF307006031D372F382F282F392F080025
:100E740038300A128A1153270A128A1106300A12CC
:100E84008A1153270A128A110C300A128A11532725
:100E94000A128A1101300A128A1153270A128A117E
:100EA4000800F200720883120313880087160712E1
:100EB4007D30F0000030F1000A128A1126270A1250
:100EC4008A118312031387127D30F0000030F10081
:100ED4000A128A1126270A128A110800F4007408DB
:100EE4000A128A1153270A128A11730883120313F0
:100EF4008800871607167D30F0000030F1000A12D2
:100F04008A1126270A128A118312031387127D304D
:100F1400F0000030F1000A128A1126270A128A1101
:100F24000800FA00FB01AD2F7B08750784000A1244
:100F34008A1103200A128A11F8007808F3007B084A
:100F44007A070A128A1170270A128A110130F800EE
:100F54007808FB07AD2F7B08F800F90177087902C0
:100F6400031DB62F76087802031CB92FBA2F962FCB
:100F7400BB2F0800C03083160313870088010A12B0
:100F84008A113A270A128A116430F0001930F100EC
:100F94000A128A1126270A128A110130FC007C08E1
:100FA400F5001030F6000030F70080300A128A1184
:100FB40093270A128A111230FC007C08F5001030C5
:100FC400F6000030F700C0300A128A1193270A1283
:100FD4008A116430F0001930F1000A128A112627B0
:100FE4000A128A116430F0001930F1000A128A11D1
:0C0FF40026270A128A110A128A1100280E
:02400E0032FF7F
:00000001FF
