:060000000A128A11FC2F18
:100F6200BD308316031388004030831203138800B8
:100F72001730F200D530F1001630F000F00BBF2F21
:100F8200F10BBF2FF20BBF2F000083120313880156
:100F92001730F200D530F1001630F000F00BCF2FF1
:100FA200F10BCF2FF20BCF2F00000230831203136D
:100FB20088001730F200D530F1001630F000F00B47
:100FC200E02FF10BE02FF20BE02F000042308312F2
:100FD200031388001730F200D530F1001630F0000C
:100FE200F00BF12FF10BF12FF20BF12F0000B52FC7
:0E0FF2000A128A11002883010A128A11B12FF7
:02400E003B3F36
:00000001FF
