:100000000A128A11942F00308A000408840A820799
:10001000003450344934433431343634463438347F
:10002000373437344134203453344534523449342E
:1000300041344C34203454344534533454340A3429
:060040000D340D34003404
:100F280083010A128A11C02F992F831203138C1E72
:100F38009E2F9F2F992F8C121A08A22F0800F000BD
:100F48007008831203139900A92F0C1EAC2FAD2F24
:100F5800A92F0C1208002030831603139800903034
:100F68008312031398001F3083160313990083120A
:100F780003130C128C120800831603130713871728
:100F88000A128A11AF270A128A1101300A128A112D
:100F9800DF270A128A11D02F0A128A1198270A12FB
:100FA8008A110A128A11A3270A128A11D02FD02F68
:100FB8000A128A110028F200F22F720884000A121D
:100FC8008A1103200A128A110A128A11A3270A1207
:100FD8008A110130F1007108F207F22F72088400BB
:100FE8000A128A1103200A128A110038031DFD2FE4
:080FF800FE2FE12FFF2F08007E
:02400E007AFF37
:00000001FF
