:030000000204DB1C
:0C04DB00787FE4F6D8FD7581360205221A
:10044A00554E4956455253414C20424F4152442041
:10045A0000202020415438395335322020202020D2
:10046A002000556E6976657273616C20426F617205
:10047A00640D0A0020202020415438395335322097
:10048A002020200D0A0054454D3A0048554D3A00A7
:10049A004C44523A0050574D3A0054656D7065729B
:1004AA0061747572653A000D0A0020202048756D46
:1004BA0069646974793A002020496E74656E7369BB
:1004CA0074793A0050756C73652057696474683A98
:0104DA000021
:07094A000519000000000088
:02034400D2B431
:100346007528007529C8752600752773E5271527B2
:1003560070021526E527452670F2E5291529700253
:080366001528E529452870DE89
:02036E00C2B417
:10037000752800752914752600752773E52715273C
:1003800070021526E527452670F2E5291529700229
:080390001528E529452870DE5F
:02039800D2B4DD
:0E039A007526081526E526D39400400280F54E
:1003A800E4F51420B4090514E514C394FA40F4E400
:1003B800F51530B4090515E515C394FA40F4E4F5CC
:1003C80008751E80E51E603FE4F58AD28C20B407CC
:1003D800E58AC3943240F630B407E58AC39478407E
:1003E800F6C28CE58AD39450741940092508F8E6BA
:1003F800451EF6800A2508F8E6FFE51EF45FF6E5D7
:100408001EC313F51E80BD0508E508B405B3E5193C
:10041800251AFFE433FE7C00EF251BFFEC3EFEEFC0
:10042800251CF50FEC3EF50EE51DB50F0AE4B50EDB
:1004380006851918851B0D758CFC758A66D2AD7FEB
:02044800002290
:0605670075340075350A31
:0A056D008B2F8A3089318C328D33D8
:10057700AF33AE32AC34AD3512061D74012531F5FB
:1005870031E43530F530EF4E70EAAB2FE5311531F8
:10059700AA3070021530F9E412060BAC34AD35AE53
:1005A70032AF3312061D8D36AE32AF33AC34AD35B4
:1005B70012061D8E328F33C3E5366480948A400657
:1005C70074072536F53674302536F536AB2FE53109
:1005D7001531AA3070021530F9E53612060BE533EE
:0A05E700453270B7AB2FAA30A931DE
:0105F10022E7
:0601D50043B00843B00432
:1001DB007528007529C8752600752773E52715271F
:1001EB0070021526E527452670F2E52915297002C0
:0801FB001528E529452870DEF6
:050203007F031208A5B5
:10020800752800752905752600752773E5271527B4
:1002180070021526E527452670F2E5291529700292
:080228001528E529452870DEC8
:050230007F031208A588
:10023500752800752905752600752773E527152787
:1002450070021526E527452670F2E5291529700265
:080255001528E529452870DE9B
:05025D007F031208A55B
:0E0262007526241526E526D39400400280F56B
:050270007F021208A549
:0E0275007526241526E526D39400400280F558
:050283007F281208A510
:10028800752800752905752600752773E527152734
:1002980070021526E527452670F2E5291529700212
:0802A8001528E529452870DE48
:0502B0007F281208A5E3
:1002B500752800752905752600752773E527152707
:1002C50070021526E527452670F2E52915297002E5
:0802D5001528E529452870DE1B
:0502DD007F281208A5B6
:0E02E2007526241526E526D39400400280F5EB
:0502F0007F061208A5C5
:0E02F5007526241526E526D39400400280F5D8
:050303007F0C1208A5AB
:0E0308007526241526E526D39400400280F5C4
:050316007F011208A5A3
:10031B00752800752914752600752773E527152791
:10032B0070021526E527452670F2E529152970027E
:08033B001528E529452870DEB4
:010343002297
:1008A5008F34E4F510E53454F0FF12087FE534C4C5
:0608B50054F0FF02087F71
:10000E008D331208A5751001E53354F0FF12087FE9
:09001E00E533C454F0FF02087F31
:100802008F2F8B308A318932AB30AA31A93212054F
:10081200F26017AF2F052F0532E532700205311451
:0B082200F91205F2FD12000E80DE222C
:04073B008F268B2753
:10073F007B007A0079291205677B007A00792912EC
:10074F0008E58F28AF271527EF6528600BAF260523
:10075F00267D3012000E80EC7B007A007929AF26BF
:03076F000208027B
:0C091D00EF60047F0180027F008F1F222A
:10087F008F351208BB7F4E1207E11207D5E51F33E4
:10088F00333354F8FFE53544044F4510FF1207E1A9
:06089F001207D50208FA61
:1008BB0043B00843B0040000000053B0FB0000003D
:0508CB000053B0F7220C
:1008FA0043B00853B0FB0000000043B004000000FE
:02090A000022C9
:10090C000043B0080000000053B0F70000000000E6
:01091C0022B8
:0C07D500E51F33333354F845354510FF61
:1007E1007E80EE60165FFD600343B004ED7003533D
:1007F100B0FB12090CEEC313FE80E753B0FB0209F4
:010801000CEA
:0C092900759840438920758DFDD28E2208
:080003008F993099FDC299228A
:06082D007BFF7A0479B1A3
:100833008B2D8A2E892FAB2DAA2EA92F1205F2609C
:1008430013052FE52F7002052E14F91205F2FF127E
:05085300000380E22219
:020772008D26D2
:100774007B007A007927AD07AC061205677B007A07
:100784000079271208E5AE07AF261526EF6E60073D
:100794007F3012000380F17B007A0079270208334E
:0B093500EF6004439810225398EF225B
:100858007E80EE60215FFD600343A020ED700353AE
:10086800A0DF43A0080000000053A0F7000000002C
:06087800EEC313FE80DC5C
:01087E002257
:1007A4007E80EE602BE5A030E4047D0180027D00B4
:1007B400ED6005EE42078004EEF4520743A0080002
:1007C40000000053A0F700000000EEC313FE80D227
:0107D4002202
:1006C0007D80ED60385FFC600343A020EC70035335
:1006D000A0DF43A00800000000E5A030E4047C0196
:1006E00080027C00EC6005ED42068004EDF45206C9
:0F06F00053A0F700000000EDC313FD80C5AF0657
:0106FF0022D8
:02070000AC0744
:1007020053A0BFEC54044406FF120858EC5401C431
:10071200333354C0FFEC5402FEC433333354804F9E
:10072200FF1206C0AC071207A4AD0743A040AF04F6
:08073200EFFEEDFFEE540FFE97
:01073A00229C
:0A09400043A04043A02053A0F7227B
:03002B0002067258
:10067200C0E0C0D075D000C007C2CAE5A030E70410
:100682007F0180027F00EF601153A07FC374FF954A
:100692000CF513E4950BF512800B43A080850B1229
:1006A200850C13E512FFC374FF9FF5CDC374FF954C
:0E06B20013F5CCC2CFD2CAD007D0D0D0E032E0
:03000B000208D018
:1008D000C0E0050AE50A70020509758CFC758A639B
:0508E000C28DD0E032E2
:10002E0053A07F5380FE1201D51209291209407F79
:10003E000112091DE4FF1209357BFF7A04794A7F0C
:0F004E00801208027BFF7A04795B7FC0120802E0
:06005D0075210175200869
:1000630075240075257D752200752373E5231523FB
:1000730070021522E523452270F2E525152570024D
:080083001524E525452470DE7B
:06008B00D520D5D521CFE0
:050091007F011208A52B
:10009600752200752314752000752173E52115213D
:1000A60070021520E521452070F2E5231523700224
:0800B6001522E523452270DE4E
:1000BE007BFF7A04796C1208337BFF7A04797E1207
:1000CE000833438901758CFC758A66D2AFD2A9D2EA
:1000DE008CE4F5C8F5C9F5CDF5CCD2ADD2CAE4FFA6
:1000EE001207008E168F17E516C4F854F0C868F57F
:1000FE000BE517C4540F48F50C7BFF7A0479907FFB
:10010E0080120802E50DFD7C007B037F8412073B05
:10011E007BFF7A0479957F88120802E518FD7C0032
:10012E007B037F8C12073B7BFF7A04799A7FC01288
:10013E0008027B04AD17AC167FC412073B7BFF7A17
:10014E0004799F7FC91208027B03AD0CAC0B7FCDE7
:10015E0012073BD3E50A94DBE50994054080438002
:10016E0001C28C1203447BFF7A0479A4120833AFC8
:10017E000D7E007D0312077212082D7BFF7A047923
:10018E00B4120833AF187E007D0312077212082DC9
:10019E007BFF7A0479C11208337D04AF17AE1612B5
:1001AE00077212082D7BFF7A0479CE1208337D0375
:1001BE00AF0CAE0B12077212082D5380FEE4F50938
:0701CE00F50AD28C0200ECDF
:1004E70002002EE493A3F8E493A34003F68001F2FD
:1004F70008DFF48029E493A3F85407240CC8C33316
:10050700C4540F4420C8834004F456800146F6DFE4
:10051700E4800B010204081020408090094AE47E21
:10052700019360BCA3FF543F30E509541FFEE493D9
:10053700A360010ECF54C025E060A840B8E493A3A0
:10054700FAE493A3F8E493A3C8C582C8CAC583CACB
:10055700F0A3C8C582C8CAC583CADFE9DEE780BE83
:0109510000A5
:1005F200BB010689828A83E0225002E722BBFE0207
:09060200E32289828A83E4932239
:10060B00BB010689828A83F0225002F722BBFE01CE
:02061B00F322C8
:10061D00BC000BBE0029EF8DF084FFADF022E4CCC1
:10062D00F875F008EF2FFFEE33FEEC33FCEE9DEC8A
:10063D00984005FCEE9DFE0FD5F0E9E4CEFD22EDD0
:10064D00F8F5F0EE8420D21CFEADF075F008EF2F1A
:10065D00FFED33FD4007985006D5F0F222C398FD0B
:05066D000FD5F0EA22A8
:1008E500E4FFFE1205F2600C0FEF70010E09E970CE
:0508F500F20A80EF2271
:00000001FF
